{
  "_format": "hh-sol-artifact-1",
  "contractName": "P2PIX",
  "sourceName": "contracts/p2pix.sol",
  "abi": [
    {
      "inputs": [
        {
          "internalType": "uint256",
          "name": "defaultBlocks",
          "type": "uint256"
        },
        {
          "internalType": "address[]",
          "name": "validSigners",
          "type": "address[]"
        },
        {
          "internalType": "address",
          "name": "_reputation",
          "type": "address"
        },
        {
          "internalType": "contract ERC20[]",
          "name": "tokens",
          "type": "address[]"
        },
        {
          "internalType": "bool[]",
          "name": "tokenStates",
          "type": "bool[]"
        }
      ],
      "stateMutability": "payable",
      "type": "constructor"
    },
    {
      "inputs": [],
      "name": "AddressDenied",
      "type": "error"
    },
    {
      "inputs": [],
      "name": "AlreadyReleased",
      "type": "error"
    },
    {
      "inputs": [],
      "name": "AmountNotAllowed",
      "type": "error"
    },
    {
      "inputs": [],
      "name": "DecOverflow",
      "type": "error"
    },
    {
      "inputs": [],
      "name": "EmptyPixTarget",
      "type": "error"
    },
    {
      "inputs": [],
      "name": "InvalidDeposit",
      "type": "error"
    },
    {
      "inputs": [],
      "name": "InvalidSigner",
      "type": "error"
    },
    {
      "inputs": [],
      "name": "LengthMismatch",
      "type": "error"
    },
    {
      "inputs": [],
      "name": "LockExpired",
      "type": "error"
    },
    {
      "inputs": [],
      "name": "LoopOverflow",
      "type": "error"
    },
    {
      "inputs": [],
      "name": "MaxBalExceeded",
      "type": "error"
    },
    {
      "inputs": [],
      "name": "NoTokens",
      "type": "error"
    },
    {
      "inputs": [],
      "name": "NotEnoughTokens",
      "type": "error"
    },
    {
      "inputs": [],
      "name": "NotExpired",
      "type": "error"
    },
    {
      "inputs": [],
      "name": "NotInitialized",
      "type": "error"
    },
    {
      "inputs": [],
      "name": "OnlySeller",
      "type": "error"
    },
    {
      "inputs": [],
      "name": "Reentrancy",
      "type": "error"
    },
    {
      "inputs": [],
      "name": "StaticCallFailed",
      "type": "error"
    },
    {
      "inputs": [],
      "name": "TokenDenied",
      "type": "error"
    },
    {
      "inputs": [],
      "name": "TxAlreadyUsed",
      "type": "error"
    },
    {
      "inputs": [],
      "name": "Unauthorized",
      "type": "error"
    },
    {
      "anonymous": false,
      "inputs": [
        {
          "indexed": true,
          "internalType": "address",
          "name": "token",
          "type": "address"
        },
        {
          "indexed": true,
          "internalType": "bool",
          "name": "state",
          "type": "bool"
        }
      ],
      "name": "AllowedERC20Updated",
      "type": "event"
    },
    {
      "anonymous": false,
      "inputs": [
        {
          "indexed": true,
          "internalType": "address",
          "name": "seller",
          "type": "address"
        },
        {
          "indexed": false,
          "internalType": "contract ERC20",
          "name": "token",
          "type": "address"
        },
        {
          "indexed": false,
          "internalType": "uint256",
          "name": "amount",
          "type": "uint256"
        }
      ],
      "name": "DepositAdded",
      "type": "event"
    },
    {
      "anonymous": false,
      "inputs": [
        {
          "indexed": true,
          "internalType": "address",
          "name": "seller",
          "type": "address"
        },
        {
          "indexed": false,
          "internalType": "contract ERC20",
          "name": "token",
          "type": "address"
        },
        {
          "indexed": false,
          "internalType": "uint256",
          "name": "amount",
          "type": "uint256"
        }
      ],
      "name": "DepositWithdrawn",
      "type": "event"
    },
    {
      "anonymous": false,
      "inputs": [
        {
          "indexed": false,
          "internalType": "address",
          "name": "owner",
          "type": "address"
        },
        {
          "indexed": false,
          "internalType": "uint256",
          "name": "amount",
          "type": "uint256"
        }
      ],
      "name": "FundsWithdrawn",
      "type": "event"
    },
    {
      "anonymous": false,
      "inputs": [
        {
          "indexed": true,
          "internalType": "address",
          "name": "buyer",
          "type": "address"
        },
        {
          "indexed": true,
          "internalType": "uint256",
          "name": "lockID",
          "type": "uint256"
        },
        {
          "indexed": false,
          "internalType": "address",
          "name": "seller",
          "type": "address"
        },
        {
          "indexed": false,
          "internalType": "uint256",
          "name": "amount",
          "type": "uint256"
        }
      ],
      "name": "LockAdded",
      "type": "event"
    },
    {
      "anonymous": false,
      "inputs": [
        {
          "indexed": false,
          "internalType": "uint256",
          "name": "blocks",
          "type": "uint256"
        }
      ],
      "name": "LockBlocksUpdated",
      "type": "event"
    },
    {
      "anonymous": false,
      "inputs": [
        {
          "indexed": true,
          "internalType": "address",
          "name": "buyer",
          "type": "address"
        },
        {
          "indexed": false,
          "internalType": "uint256",
          "name": "lockId",
          "type": "uint256"
        },
        {
          "indexed": false,
          "internalType": "uint256",
          "name": "amount",
          "type": "uint256"
        }
      ],
      "name": "LockReleased",
      "type": "event"
    },
    {
      "anonymous": false,
      "inputs": [
        {
          "indexed": true,
          "internalType": "address",
          "name": "buyer",
          "type": "address"
        },
        {
          "indexed": false,
          "internalType": "uint256",
          "name": "lockId",
          "type": "uint256"
        }
      ],
      "name": "LockReturned",
      "type": "event"
    },
    {
      "anonymous": false,
      "inputs": [
        {
          "indexed": true,
          "internalType": "address",
          "name": "user",
          "type": "address"
        },
        {
          "indexed": true,
          "internalType": "address",
          "name": "newOwner",
          "type": "address"
        }
      ],
      "name": "OwnerUpdated",
      "type": "event"
    },
    {
      "anonymous": false,
      "inputs": [
        {
          "indexed": false,
          "internalType": "address",
          "name": "reputation",
          "type": "address"
        }
      ],
      "name": "ReputationUpdated",
      "type": "event"
    },
    {
      "anonymous": false,
      "inputs": [
        {
          "indexed": true,
          "internalType": "address",
          "name": "seller",
          "type": "address"
        },
        {
          "indexed": true,
          "internalType": "bytes32",
          "name": "merkleRoot",
          "type": "bytes32"
        }
      ],
      "name": "RootUpdated",
      "type": "event"
    },
    {
      "anonymous": false,
      "inputs": [
        {
          "indexed": true,
          "internalType": "address",
          "name": "forwarder",
          "type": "address"
        },
        {
          "indexed": true,
          "internalType": "bool",
          "name": "state",
          "type": "bool"
        }
      ],
      "name": "TrustedForwarderUpdated",
      "type": "event"
    },
    {
      "anonymous": false,
      "inputs": [
        {
          "indexed": true,
          "internalType": "address",
          "name": "seller",
          "type": "address"
        },
        {
          "indexed": false,
          "internalType": "contract ERC20",
          "name": "token",
          "type": "address"
        },
        {
          "indexed": false,
          "internalType": "bool",
          "name": "state",
          "type": "bool"
        }
      ],
      "name": "ValidSet",
      "type": "event"
    },
    {
      "anonymous": false,
      "inputs": [
        {
          "indexed": false,
          "internalType": "address[]",
          "name": "signers",
          "type": "address[]"
        }
      ],
      "name": "ValidSignersUpdated",
      "type": "event"
    },
    {
      "inputs": [
        {
          "internalType": "address",
          "name": "_addr",
          "type": "address"
        }
      ],
      "name": "_castAddrToKey",
      "outputs": [
        {
          "internalType": "uint256",
          "name": "_key",
          "type": "uint256"
        }
      ],
      "stateMutability": "pure",
      "type": "function"
    },
    {
      "inputs": [
        {
          "internalType": "uint256",
          "name": "_key",
          "type": "uint256"
        }
      ],
      "name": "_castKeyToAddr",
      "outputs": [
        {
          "internalType": "address",
          "name": "_addr",
          "type": "address"
        }
      ],
      "stateMutability": "pure",
      "type": "function"
    },
    {
      "inputs": [
        {
          "internalType": "contract ERC20",
          "name": "erc20",
          "type": "address"
        }
      ],
      "name": "allowedERC20s",
      "outputs": [
        {
          "internalType": "bool",
          "name": "state",
          "type": "bool"
        }
      ],
      "stateMutability": "view",
      "type": "function"
    },
    {
      "inputs": [],
      "name": "defaultLockBlocks",
      "outputs": [
        {
          "internalType": "uint256",
          "name": "",
          "type": "uint256"
        }
      ],
      "stateMutability": "view",
      "type": "function"
    },
    {
      "inputs": [
        {
          "internalType": "string",
          "name": "pixTarget",
          "type": "string"
        },
        {
          "internalType": "bytes32",
          "name": "allowlistRoot",
          "type": "bytes32"
        },
        {
          "internalType": "contract ERC20",
          "name": "token",
          "type": "address"
        },
        {
          "internalType": "uint96",
          "name": "amount",
          "type": "uint96"
        },
        {
          "internalType": "bool",
          "name": "valid",
          "type": "bool"
        }
      ],
      "name": "deposit",
      "outputs": [],
      "stateMutability": "nonpayable",
      "type": "function"
    },
    {
      "inputs": [
        {
          "internalType": "address",
          "name": "seller",
          "type": "address"
        },
        {
          "internalType": "contract ERC20",
          "name": "token",
          "type": "address"
        }
      ],
      "name": "getBalance",
      "outputs": [
        {
          "internalType": "uint256",
          "name": "bal",
          "type": "uint256"
        }
      ],
      "stateMutability": "view",
      "type": "function"
    },
    {
      "inputs": [
        {
          "internalType": "address[]",
          "name": "sellers",
          "type": "address[]"
        },
        {
          "internalType": "contract ERC20",
          "name": "token",
          "type": "address"
        }
      ],
      "name": "getBalances",
      "outputs": [
        {
          "internalType": "uint256[]",
          "name": "",
          "type": "uint256[]"
        }
      ],
      "stateMutability": "view",
      "type": "function"
    },
    {
      "inputs": [
        {
          "internalType": "uint256[]",
          "name": "ids",
          "type": "uint256[]"
        }
      ],
      "name": "getLocksStatus",
      "outputs": [
        {
          "internalType": "uint256[]",
          "name": "",
          "type": "uint256[]"
        },
        {
          "internalType": "enum DataTypes.LockStatus[]",
          "name": "",
          "type": "uint8[]"
        }
      ],
      "stateMutability": "view",
      "type": "function"
    },
    {
      "inputs": [
        {
          "internalType": "address",
          "name": "seller",
          "type": "address"
        },
        {
          "internalType": "contract ERC20",
          "name": "token",
          "type": "address"
        }
      ],
      "name": "getPixTarget",
      "outputs": [
        {
          "internalType": "bytes32",
          "name": "pixTarget",
          "type": "bytes32"
        }
      ],
      "stateMutability": "view",
      "type": "function"
    },
    {
      "inputs": [
        {
          "internalType": "address",
          "name": "seller",
          "type": "address"
        },
        {
          "internalType": "contract ERC20",
          "name": "token",
          "type": "address"
        }
      ],
      "name": "getPixTargetString",
      "outputs": [
        {
          "internalType": "string",
          "name": "pixTarget",
          "type": "string"
        }
      ],
      "stateMutability": "view",
      "type": "function"
    },
    {
      "inputs": [
        {
          "internalType": "string",
          "name": "str",
          "type": "string"
        }
      ],
      "name": "getStr",
      "outputs": [
        {
          "internalType": "bytes32",
          "name": "strEnc",
          "type": "bytes32"
        }
      ],
      "stateMutability": "pure",
      "type": "function"
    },
    {
      "inputs": [
        {
          "internalType": "address",
          "name": "seller",
          "type": "address"
        },
        {
          "internalType": "contract ERC20",
          "name": "token",
          "type": "address"
        }
      ],
      "name": "getValid",
      "outputs": [
        {
          "internalType": "bool",
          "name": "valid",
          "type": "bool"
        }
      ],
      "stateMutability": "view",
      "type": "function"
    },
    {
      "inputs": [
        {
          "internalType": "address",
          "name": "forwarder",
          "type": "address"
        }
      ],
      "name": "isTrustedForwarder",
      "outputs": [
        {
          "internalType": "bool",
          "name": "",
          "type": "bool"
        }
      ],
      "stateMutability": "view",
      "type": "function"
    },
    {
      "inputs": [
        {
          "internalType": "address",
          "name": "seller",
          "type": "address"
        },
        {
          "internalType": "contract ERC20",
          "name": "token",
          "type": "address"
        },
        {
          "internalType": "uint80",
          "name": "amount",
          "type": "uint80"
        },
        {
          "internalType": "bytes32[]",
          "name": "merkleProof",
          "type": "bytes32[]"
        },
        {
          "internalType": "uint256[]",
          "name": "expiredLocks",
          "type": "uint256[]"
        }
      ],
      "name": "lock",
      "outputs": [
        {
          "internalType": "uint256",
          "name": "lockID",
          "type": "uint256"
        }
      ],
      "stateMutability": "nonpayable",
      "type": "function"
    },
    {
      "inputs": [],
      "name": "lockCounter",
      "outputs": [
        {
          "internalType": "uint256",
          "name": "",
          "type": "uint256"
        }
      ],
      "stateMutability": "view",
      "type": "function"
    },
    {
      "inputs": [
        {
          "internalType": "uint256",
          "name": "",
          "type": "uint256"
        }
      ],
      "name": "mapLocks",
      "outputs": [
        {
          "internalType": "uint256",
          "name": "counter",
          "type": "uint256"
        },
        {
          "internalType": "uint256",
          "name": "expirationBlock",
          "type": "uint256"
        },
        {
          "internalType": "bytes32",
          "name": "pixTarget",
          "type": "bytes32"
        },
        {
          "internalType": "uint80",
          "name": "amount",
          "type": "uint80"
        },
        {
          "internalType": "contract ERC20",
          "name": "token",
          "type": "address"
        },
        {
          "internalType": "address",
          "name": "buyerAddress",
          "type": "address"
        },
        {
          "internalType": "address",
          "name": "seller",
          "type": "address"
        }
      ],
      "stateMutability": "view",
      "type": "function"
    },
    {
      "inputs": [],
      "name": "owner",
      "outputs": [
        {
          "internalType": "address",
          "name": "",
          "type": "address"
        }
      ],
      "stateMutability": "view",
      "type": "function"
    },
    {
      "inputs": [
        {
          "internalType": "uint256",
          "name": "lockID",
          "type": "uint256"
        },
        {
          "internalType": "bytes32",
          "name": "pixTimestamp",
          "type": "bytes32"
        },
        {
          "internalType": "bytes",
          "name": "signature",
          "type": "bytes"
        }
      ],
      "name": "release",
      "outputs": [],
      "stateMutability": "nonpayable",
      "type": "function"
    },
    {
      "inputs": [],
      "name": "reputation",
      "outputs": [
        {
          "internalType": "contract IReputation",
          "name": "",
          "type": "address"
        }
      ],
      "stateMutability": "view",
      "type": "function"
    },
    {
      "inputs": [
        {
          "internalType": "address",
          "name": "sellerKey",
          "type": "address"
        }
      ],
      "name": "sellerAllowList",
      "outputs": [
        {
          "internalType": "bytes32",
          "name": "root",
          "type": "bytes32"
        }
      ],
      "stateMutability": "view",
      "type": "function"
    },
    {
      "inputs": [
        {
          "internalType": "uint256",
          "name": "_blocks",
          "type": "uint256"
        }
      ],
      "name": "setDefaultLockBlocks",
      "outputs": [],
      "stateMutability": "nonpayable",
      "type": "function"
    },
    {
      "inputs": [
        {
          "internalType": "address",
          "name": "newOwner",
          "type": "address"
        }
      ],
      "name": "setOwner",
      "outputs": [],
      "stateMutability": "nonpayable",
      "type": "function"
    },
    {
      "inputs": [
        {
          "internalType": "contract IReputation",
          "name": "_reputation",
          "type": "address"
        }
      ],
      "name": "setReputation",
      "outputs": [],
      "stateMutability": "nonpayable",
      "type": "function"
    },
    {
      "inputs": [
        {
          "internalType": "address",
          "name": "addr",
          "type": "address"
        },
        {
          "internalType": "bytes32",
          "name": "merkleroot",
          "type": "bytes32"
        }
      ],
      "name": "setRoot",
      "outputs": [],
      "stateMutability": "nonpayable",
      "type": "function"
    },
    {
      "inputs": [
        {
          "internalType": "address[]",
          "name": "forwarders",
          "type": "address[]"
        },
        {
          "internalType": "bool[]",
          "name": "states",
          "type": "bool[]"
        }
      ],
      "name": "setTrustedFowarders",
      "outputs": [],
      "stateMutability": "nonpayable",
      "type": "function"
    },
    {
      "inputs": [
        {
          "internalType": "address[]",
          "name": "_validSigners",
          "type": "address[]"
        }
      ],
      "name": "setValidSigners",
      "outputs": [],
      "stateMutability": "nonpayable",
      "type": "function"
    },
    {
      "inputs": [
        {
          "internalType": "contract ERC20",
          "name": "token",
          "type": "address"
        },
        {
          "internalType": "bool",
          "name": "state",
          "type": "bool"
        }
      ],
      "name": "setValidState",
      "outputs": [],
      "stateMutability": "nonpayable",
      "type": "function"
    },
    {
      "inputs": [
        {
          "internalType": "contract ERC20[]",
          "name": "_tokens",
          "type": "address[]"
        },
        {
          "internalType": "bool[]",
          "name": "_states",
          "type": "bool[]"
        }
      ],
      "name": "tokenSettings",
      "outputs": [],
      "stateMutability": "nonpayable",
      "type": "function"
    },
    {
      "inputs": [
        {
          "internalType": "address",
          "name": "",
          "type": "address"
        }
      ],
      "name": "trustedForwarders",
      "outputs": [
        {
          "internalType": "bool",
          "name": "",
          "type": "bool"
        }
      ],
      "stateMutability": "view",
      "type": "function"
    },
    {
      "inputs": [
        {
          "internalType": "uint256[]",
          "name": "lockIDs",
          "type": "uint256[]"
        }
      ],
      "name": "unlockExpired",
      "outputs": [],
      "stateMutability": "nonpayable",
      "type": "function"
    },
    {
      "inputs": [
        {
          "internalType": "bytes32",
          "name": "message",
          "type": "bytes32"
        }
      ],
      "name": "usedTransactions",
      "outputs": [
        {
          "internalType": "bool",
          "name": "used",
          "type": "bool"
        }
      ],
      "stateMutability": "view",
      "type": "function"
    },
    {
      "inputs": [
        {
          "internalType": "uint256",
          "name": "",
          "type": "uint256"
        }
      ],
      "name": "userRecord",
      "outputs": [
        {
          "internalType": "uint256",
          "name": "",
          "type": "uint256"
        }
      ],
      "stateMutability": "view",
      "type": "function"
    },
    {
      "inputs": [
        {
          "internalType": "uint256",
          "name": "signer",
          "type": "uint256"
        }
      ],
      "name": "validBacenSigners",
      "outputs": [
        {
          "internalType": "bool",
          "name": "valid",
          "type": "bool"
        }
      ],
      "stateMutability": "view",
      "type": "function"
    },
    {
      "inputs": [
        {
          "internalType": "contract ERC20",
          "name": "token",
          "type": "address"
        },
        {
          "internalType": "uint256",
          "name": "amount",
          "type": "uint256"
        },
        {
          "internalType": "uint256[]",
          "name": "expiredLocks",
          "type": "uint256[]"
        }
      ],
      "name": "withdraw",
      "outputs": [],
      "stateMutability": "nonpayable",
      "type": "function"
    },
    {
      "inputs": [],
      "name": "withdrawBalance",
      "outputs": [],
      "stateMutability": "nonpayable",
      "type": "function"
    },
    {
      "stateMutability": "payable",
      "type": "receive"
    }
  ],
  "bytecode": "0x60406080815262002875803803806200001881620003a7565b92833981019060a08183031262000366578051602080830151909391906001600160401b0390818111620003665784019383601f8601121562000366578451946200006d6200006787620003e3565b620003a7565b9087828881520188819860051b83010191878311620003665789809101915b8383106200038c5750505050620000a5888301620003fb565b906060830151848111620003665783019386601f860112156200036657845193620000d46200006786620003e3565b958a87878152018b819760051b830101918a831162000366578c01905b8282106200036b5750505060808101519182116200036657019686601f890112156200036657875196620001296200006789620003e3565b988a8a8a815201908b829a60051b82010192831162000366578b01905b8282106200034c575050600080546001600160a01b03191633908117825590977f70fa43ca70216ad905ade86b9e650a691b2ce5a01980d0a81bdd8324141b851192508b91897f8292fce18fa69edf4db7b94ea2e58241df0ae57f97e0a6c9b29067028bf92d768180a3806003558c51908152a1815160051b82018901893d1515835b81156200032a575b50505050895191898301908a8452518091528a83019190875b8b8282106200030c575050505090807f14a422d2412784a5749d03da98921fe468c98577b767851389a9f58ea5a363d7920390a183546001600160a01b0391821691163303620002fc5786817fe127cf589a3879da0156d4a24f43b44f65cfa3570de594806b0bfa2fcf06884f926002558951908152a18151948515620002ef57518503620002e2579085919460051b0101925b8381036200029a57856001600455516124649081620004118239f35b84809181600c63cbc9d1c48152825186528651918291205581517f5d6e86e5341d57a92c49934296c51542a25015c9b1782a1c2722a940131c3d9a8680a3019201916200027e565b63ff633a3883526004601cfd5b63df95788384526004601cfd5b87516282b42960e81b8152600490fd5b83516001600160a01b031685529384019390920191600101620001ea565b806001849251600c1b55019083821015620003465790620001c9565b620001d1565b8151801515810362000366578152908b01908b0162000146565b600080fd5b81516001600160a01b038116810362000366578152908c01908c01620000f1565b81906200039984620003fb565b81520191019089906200008c565b6040519190601f01601f191682016001600160401b03811183821017620003cd57604052565b634e487b7160e01b600052604160045260246000fd5b6001600160401b038111620003cd5760051b60200190565b51906001600160a01b0382168203620003665756fe608080604052600436101561001d575b50361561001b57600080fd5b005b60003560e01c9081630493732014611ab8575080630d2a2d44146119b557806311fc7f9a1461166357806313af4035146115d6578063367821f0146115445780633c16f0c414611511578063461f312014610db957806349ef8448146113f75780634b2ae980146113d157806354776bb914611385578063572b6c0514611385578063574983c8146113215780635e918943146110e35780635fd8c7101461106457806369cc6af41461102f5780636d82d9e014610f6b5780637f94f65d14610f4657806380e1d30214610f1057806384ab1d2814610eda5780638da5cb5b14610ea65780638db564c214610e88578063918dff5714610df85780639872dbfe14610dda57806398a2687114610db9578063ad8f2eed14610d8d578063b0983d3914610d53578063c52164c614610d1f578063d1c0702814610c75578063d1ced2b014610b97578063d4fac45d14610b6b578063d6e8b97314610a17578063dc43221c14610451578063e449c52a146103fd578063f7d0e04b146103645763fb8c5ef0146101ab573861000f565b3461035f57606060031936011261035f576101c4611b55565b60243560443567ffffffffffffffff811161035f576101ea6101f8913690600401611ca7565b906101f3611de7565b611ef1565b61020282336121d4565b610299575b6102403383836b3fffffffffffffffffffffff61023a83339060205263739094b1600c5260005260016034600c20015490565b1661215e565b61024b813384611e69565b73ffffffffffffffffffffffffffffffffffffffff6040519216825260208201527f2cd6435b1b961c13f55202979edd0765a809f69a539d8a477436c94c1211e43e60403392a26001600455005b6102b982339060205263739094b1600c5260005260016034600c20015490565b8015610335576b3fffffffffffffffffffffff908360205263739094b1600c52336000521660016034600c20015560405173ffffffffffffffffffffffffffffffffffffffff83168152600060208201527fca585721b6b442dc9183932f7c84dc2880efb67c4da52cc06873e78971105d4960403392a2610207565b60046040517f87138d5c000000000000000000000000000000000000000000000000000000008152fd5b600080fd5b3461035f57602060031936011261035f5773ffffffffffffffffffffffffffffffffffffffff6004358181169182820361035f576000541633036103d3577fe127cf589a3879da0156d4a24f43b44f65cfa3570de594806b0bfa2fcf06884f91602091600255604051908152a1005b60046040517f82b42900000000000000000000000000000000000000000000000000000000008152fd5b3461035f57602060031936011261035f5760043567ffffffffffffffff811161035f573660238201121561035f576104496104446020923690602481600401359101611d3f565b611da4565b604051908152f35b3461035f5760a060031936011261035f5761046a611b55565b610472611c61565b9060443569ffffffffffffffffffff8116810361035f5760643567ffffffffffffffff811161035f576104a9903690600401611ca7565b93909260843567ffffffffffffffff811161035f576101ea6104cf913690600401611ca7565b6104d982826121d4565b156109ed576104e8828261219a565b9069ffffffffffffffffffff841682106109c35760016005540194856005558560005260066020526001604060002001544311156109995761052a8483612211565b9680156107ff576374dfee70600c5282600052602060002054918173ffffffffffffffffffffffffffffffffffffffff610562611e22565b16926107cc575b5050036107a2575b61057d60035443611dda565b90610586611e22565b94604051958660e081011067ffffffffffffffff60e0890111176107735773ffffffffffffffffffffffffffffffffffffffff6106ef9669ffffffffffffffffffff82969460209c849660e08d016040528d8d528e8d015260408c01521660608a01521660808801521660a08601521660c0840152836000526006855260406000209083518255858401516001830155604084015160028301556003820173ffffffffffffffffffffffffffffffffffffffff69ffffffffffffffffffff60608701511691805490608088015191847fffff0000000000000000000000000000000000000000000000000000000000007dffffffffffffffffffffffffffffffffffffffff000000000000000000008560501b16921617179055600560048601958360a08a015116967fffffffffffffffffffffffff00000000000000000000000000000000000000009788825416179055018260c0890151168096825416179055169161215e565b73ffffffffffffffffffffffffffffffffffffffff60a0820151167fa8fb61052fec8ed6ed923dd5e14b7d6aaae41d44c8870fc4efebf871389a577d604083519369ffffffffffffffffffff606073ffffffffffffffffffffffffffffffffffffffff60c08401511692015116825191825287820152a36001600455604051908152f35b7f4e487b7100000000000000000000000000000000000000000000000000000000600052604160045260246000fd5b60046040517f3b8474be000000000000000000000000000000000000000000000000000000008152fd5b60051b810190915b602083359182811160051b9081521852602060406000209201918183106107d4579150508880610569565b505068056bc75e2d6310000069ffffffffffffffffffff85161180610973575b156105715761082c611e22565b600c1b6000526007602052670de0b6b3a764000060406000205404604051907f4d2b179100000000000000000000000000000000000000000000000000000000602083015260248201526024815280606081011067ffffffffffffffff6060830111176107735760008160606020930160405282815191016002545afa600051901561096557670de0b6b3a7640000810290808204670de0b6b3a764000014901517156109365769ffffffffffffffffffff8516118015610917575b156105715760046040517f1c18f846000000000000000000000000000000000000000000000000000000008152fd5b5069d3c21bcecceda100000069ffffffffffffffffffff8516116108e8565b7f4e487b7100000000000000000000000000000000000000000000000000000000600052601160045260246000fd5b63e10bf1cc6000526004601cfd5b5073ffffffffffffffffffffffffffffffffffffffff610991611e22565b16331461081f565b60046040517fd0404f85000000000000000000000000000000000000000000000000000000008152fd5b60046040517f22bbb43c000000000000000000000000000000000000000000000000000000008152fd5b60046040517fb2e532de000000000000000000000000000000000000000000000000000000008152fd5b3461035f57604060031936011261035f5760043567ffffffffffffffff80821161035f573660238301121561035f578160040135610a5481611b3d565b91610a626040519384611afc565b8183526020938484019260051b8101602401908336831161035f576024879201905b838210610b54575050505060243590811161035f57610aa7903690600401611cd8565b9073ffffffffffffffffffffffffffffffffffffffff6000541633036103d3578251928315610b465782518403610b38578480929493019260051b0101915b828103610aef57005b83809181600c63cbc9d1c4815282516000528551918291205581517f5d6e86e5341d57a92c49934296c51542a25015c9b1782a1c2722a940131c3d9a600080a301910190610ae6565b63ff633a386000526004601cfd5b63df9578836000526004601cfd5b828091610b6084611b78565b815201910190610a84565b3461035f57604060031936011261035f576020610449610b89611b55565b610b91611c61565b9061219a565b3461035f57604060031936011261035f5767ffffffffffffffff60043581811161035f57610bc9903690600401611b99565b9060243590811161035f57610be2903690600401611cd8565b73ffffffffffffffffffffffffffffffffffffffff6000541633036103d3578151908115610c735780518203610b385790602083818080960194019260051b0101915b828103610c2e57005b83809160018252805160005283518060406000205581517fbee55516e29d3969d3cb8eb01351eb3c52d06f9e2435bd5a8bfe3647e185df92600080a301910190610c25565bfe5b3461035f57604060031936011261035f5760043567ffffffffffffffff811161035f57610ca6903690600401611b99565b610cae611c61565b90600091815191610cbe8361223a565b935b838110610ce15760405160208082528190610cdd90820188611c2d565b0390f35b80610d0e8473ffffffffffffffffffffffffffffffffffffffff610d0760019587612289565b511661219a565b610d188288612289565b5201610cc0565b3461035f57600060031936011261035f57602073ffffffffffffffffffffffffffffffffffffffff60025416604051908152f35b3461035f57602060031936011261035f5760043567ffffffffffffffff811161035f57610d8761001b913690600401611ca7565b90611ef1565b3461035f57604060031936011261035f576020610449610dab611b55565b610db3611c61565b90612211565b3461035f57602060031936011261035f576020600435546040519015158152f35b3461035f57600060031936011261035f576020600354604051908152f35b3461035f57604060031936011261035f57610e14610dab611b55565b604051906020820190815260208252604082019180831067ffffffffffffffff841117610773577fffffffffffffffffffffffffffffffffffffffffffffffffffffffffffffffe0601f60409385855260208652610e7f845180928160608801526080870190611c84565b01168101030190f35b3461035f57600060031936011261035f576020600554604051908152f35b3461035f57600060031936011261035f57602073ffffffffffffffffffffffffffffffffffffffff60005416604051908152f35b3461035f57602060031936011261035f57602060405173ffffffffffffffffffffffffffffffffffffffff600435600c1c168152f35b3461035f57604060031936011261035f576020610f3c610f2e611b55565b610f36611c61565b906121d4565b6040519015158152f35b3461035f57604060031936011261035f5761001b610f62611b55565b6024359061210f565b3461035f57604060031936011261035f57610f84611b55565b6024358015159081810361035f57610fb283339060205263739094b1600c5260005260016034600c20015490565b908115610335576b3fffffffffffffffffffffff908460205263739094b1600c5233600052605f1b91161760016034600c20015573ffffffffffffffffffffffffffffffffffffffff6040519216825260208201527fca585721b6b442dc9183932f7c84dc2880efb67c4da52cc06873e78971105d4960403392a2005b3461035f57602060031936011261035f57611048611b55565b63cbc9d1c4600c52600052602080600c20546040519015158152f35b3461035f57600060031936011261035f5773ffffffffffffffffffffffffffffffffffffffff6000541633036103d35747600080808084335af1156110d55760407feaff4b37086828766ad3268786972c0cd24259d4c87a80f9d3963a3c3d999b0d918151903382526020820152a1005b63b12d13eb6000526004601cfd5b3461035f5760a060031936011261035f5760043567ffffffffffffffff811161035f57611114903690600401611bff565b6024356044359273ffffffffffffffffffffffffffffffffffffffff84169182850361035f57606435936bffffffffffffffffffffffff851680950361035f5760843591821515830361035f57611169611de7565b81156112f75763cbc9d1c4600c52866000526020600c2054156112cd576111bd866b3fffffffffffffffffffffff6111b78a339060205263739094b1600c5260005260016034600c20015490565b16611dda565b936a52b7d2dcc80cd2e400000085116112a3576111e6928261044493611293575b503691611d3f565b918560205263739094b1600c52336000526034600c2091605f1b17600182015555602060006064601c826040519787606052306040523360601b602c526f23b872dd000000000000000000000000600c525af13d1560016000511417161561128557600060605282604052825260208201527f63d8d7d5e63e9840ec91a12a160d27b7cfab294f6ba070b7359692acfe6b03bf60403392a26001600455005b637939f4246000526004601cfd5b61129d903361210f565b896111de565b60046040517ff3fb0eb9000000000000000000000000000000000000000000000000000000008152fd5b60046040517f1578328e000000000000000000000000000000000000000000000000000000008152fd5b60046040517f6a3bc53e000000000000000000000000000000000000000000000000000000008152fd5b3461035f57602060031936011261035f5760043573ffffffffffffffffffffffffffffffffffffffff6000541633036103d3576020817f70fa43ca70216ad905ade86b9e650a691b2ce5a01980d0a81bdd8324141b851192600355604051908152a1005b3461035f57602060031936011261035f5773ffffffffffffffffffffffffffffffffffffffff6113b3611b55565b166000526001602052602060ff604060002054166040519015158152f35b3461035f57602060031936011261035f5760206113ec611b55565b600c1b604051908152f35b3461035f5760208060031936011261035f576004359067ffffffffffffffff821161035f573660238301121561035f5781600401359161143683611b3d565b906114446040519283611afc565b8382528282016024809560051b8301019136831161035f5785859101915b8383106115015786826114748761229d565b909161148b60405193604085526040850190611c2d565b90838203818501528080845193848152019301946000905b8382106114b05785850386f35b90919293865160048110156114d3578152958301958301939291600101906114a3565b827f4e487b710000000000000000000000000000000000000000000000000000000060005260216004526000fd5b8235815291810191859101611462565b3461035f57602060031936011261035f5761152a611b55565b6374dfee70600c5260005260208060002054604051908152f35b3461035f57602060031936011261035f57600435600052600660205260e060406000208054906001810154906002810154600382015473ffffffffffffffffffffffffffffffffffffffff918260058160048701541695015416946040519687526020870152604086015269ffffffffffffffffffff8116606086015260501c16608084015260a083015260c0820152f35b3461035f57602060031936011261035f576115ef611b55565b60005473ffffffffffffffffffffffffffffffffffffffff80821633036103d3577fffffffffffffffffffffffff000000000000000000000000000000000000000092169182911617600055337f8292fce18fa69edf4db7b94ea2e58241df0ae57f97e0a6c9b29067028bf92d76600080a3005b3461035f57606060031936011261035f5767ffffffffffffffff60043560443582811161035f57611698903690600401611bff565b926116a1611de7565b8260005260209360068552604060002091600383019182549269ffffffffffffffffffff841695861561198b576001860192835443116119615760028701546040518b81019182527fffffffffffffffffffff000000000000000000000000000000000000000000008860b01b166040820152602435604a820152604a81526080810196818810908811176107735786604052519020948554611939575060006080818c938885527b19457468657265756d205369676e6564204d6573736167653a0a333282526040603c600420968151978282813784520135821a855260417f7fffffffffffffffffffffffffffffff5d576e7357a4501ddfe92f46681b20a1606051109114165afa506000513d1561192b57600060605281604052600c1b541561190357507f364537f14276f2a0ce9905588413f96454cbb8fb2e4f5308389307c1098bede8969492600085936001937fffffffffffffffffffffffffffffffffffffffffffff0000000000000000000060409a98169055555561185c83600461182b611e22565b73ffffffffffffffffffffffffffffffffffffffff95908616331461186f575b019284808554169160501c16611e69565b5416948351928352820152a26001600455005b8a828201878154163314156000146118e757750ffffffffffffffffffffffffffffffffffffffff000906007697fffffffffffffffffff8960011c169333600c1b600052528b6000206118c3848254611dda565b905554600c1b1660005260078c526118e08a600020918254611dda565b905561184b565b505033600c1b60005260078b52886000206118e0848254611dda565b807f815e1d640000000000000000000000000000000000000000000000000000000060049252fd5b638baa579f6000526004601cfd5b807ff490a6ea0000000000000000000000000000000000000000000000000000000060049252fd5b60046040517ff6fafba0000000000000000000000000000000000000000000000000000000008152fd5b60046040517f63b4904e000000000000000000000000000000000000000000000000000000008152fd5b3461035f5760208060031936011261035f5760043567ffffffffffffffff811161035f576119e7903690600401611b99565b9073ffffffffffffffffffffffffffffffffffffffff91826000541633036103d357805181830192849160051b830181013d1515855b8115611a84575b50505060405192818401908285525180915260408401949160005b828110611a6e577f14a422d2412784a5749d03da98921fe468c98577b767851389a9f58ea5a363d786880387a1005b8351851687529581019592810192600101611a3f565b90838260018298969499979951600c1b55019083821015611aac579150959395949294611a1d565b50959395949294611a24565b3461035f57602060031936011261035f57602090600435600052600782526040600020548152f35b6020810190811067ffffffffffffffff82111761077357604052565b90601f7fffffffffffffffffffffffffffffffffffffffffffffffffffffffffffffffe0910116810190811067ffffffffffffffff82111761077357604052565b67ffffffffffffffff81116107735760051b60200190565b6004359073ffffffffffffffffffffffffffffffffffffffff8216820361035f57565b359073ffffffffffffffffffffffffffffffffffffffff8216820361035f57565b81601f8201121561035f57803591611bb083611b3d565b92611bbe6040519485611afc565b808452602092838086019260051b82010192831161035f578301905b828210611be8575050505090565b838091611bf484611b78565b815201910190611bda565b9181601f8401121561035f5782359167ffffffffffffffff831161035f576020838186019501011161035f57565b90815180825260208080930193019160005b828110611c4d575050505090565b835185529381019392810192600101611c3f565b6024359073ffffffffffffffffffffffffffffffffffffffff8216820361035f57565b60005b838110611c975750506000910152565b8181015183820152602001611c87565b9181601f8401121561035f5782359167ffffffffffffffff831161035f576020808501948460051b01011161035f57565b81601f8201121561035f57803591611cef83611b3d565b92611cfd6040519485611afc565b808452602092838086019260051b82010192831161035f578301905b828210611d27575050505090565b8135801515810361035f578152908301908301611d19565b92919267ffffffffffffffff82116107735760405191611d8760207fffffffffffffffffffffffffffffffffffffffffffffffffffffffffffffffe0601f8401160184611afc565b82948184528183011161035f578281602093846000960137010152565b604051611dce60208281611dc18183019687815193849201611c84565b8101038084520182611afc565b51602010610c73575190565b9190820180921161093657565b600260045414611df8576002600455565b60046040517fab143c06000000000000000000000000000000000000000000000000000000008152fd5b33600052600160205260ff60406000205416600014611e65577fffffffffffffffffffffffffffffffffffffffffffffffffffffffffffffffec36013560601c90565b3390565b60109260209260145260345260446000938480936fa9059cbb00000000000000000000000082525af13d156001835114171615611ea557603452565b6390b8ec1890526004601cfd5b9190811015611ec25760051b0190565b7f4e487b7100000000000000000000000000000000000000000000000000000000600052603260045260246000fd5b6000905b828210611f12575010611f0457565b63dfb035c96000526004601cfd5b90611f1e818484611eb2565b3560005260209060068252604080600020926001934385820154116120e657600381019081549069ffffffffffffffffffff82169283156120bd5773ffffffffffffffffffffffffffffffffffffffff9384806005850154169460501c166a52b7d2dcc80cd2e4000000611fb9836b3fffffffffffffffffffffff6111b7858a9060205263739094b1600c5260005260016034600c20015490565b116120945792750ffffffffffffffffffffffffffffffffffffffff00092600492889796957f830501e61b8b075e170b22a430e39454bdb12ed3e9620e586430b6ac00079da59952600c9563739094b187526000528b60348720019081540190557fffffffffffffffffffffffffffffffffffffffffffff00000000000000000000815416905501918254901b1660005260078352846000208054881c9068056bc75e2d63100000918281111560001461208c5750555b54169261207e858989611eb2565b359051908152a20190611ef5565b915055612070565b600488517ff3fb0eb9000000000000000000000000000000000000000000000000000000008152fd5b600486517f63b4904e000000000000000000000000000000000000000000000000000000008152fd5b600483517fd0404f85000000000000000000000000000000000000000000000000000000008152fd5b338103612150576374dfee70600c5280600052816020600020557f0b294da292f26e55fd442b5c0164fbb9013036ff00c5cfdde0efd01c1baaf632600080a3565b6385d1f7266000526004601cfd5b92919092808481031190151761218c5760205263739094b1600c5260005260016034600c2001908154039055565b63ce3a3d376000526004601cfd5b600092913d156121a8575050565b9091925060205263739094b1600c5260005260016034600c2001546b3fffffffffffffffffffffff1690565b600092913d156121e2575050565b9091925060205263739094b1600c5260005260016034600c200154605f1c6b3fffffffffffffffffffffff1690565b600092913d1561221f575050565b9091925060205263739094b1600c526000526034600c205490565b9061224482611b3d565b6122516040519182611afc565b8281527fffffffffffffffffffffffffffffffffffffffffffffffffffffffffffffffe061227f8294611b3d565b0190602036910137565b8051821015611ec25760209160051b010190565b908151156124025760009180516122b38161223a565b916122bd8261223a565b945b8281106122cd575050509190565b6122d78183612289565b51600052600690602082815260409273ffffffffffffffffffffffffffffffffffffffff6005856000200154161560001461233e5750506001915061231c8184612289565b516123278287612289565b5260006123348289612289565b5201915b916122bf565b6123488386612289565b5160005280825260039169ffffffffffffffffffff83866000200154161560001461239b5750506001925061237d8285612289565b516123888388612289565b526123938289612289565b520191612338565b9091506123a88386612289565b516000525260018092600020015443116000146123e1576123c98184612289565b516123d48287612289565b5260026123938289612289565b6123eb8184612289565b516123f68287612289565b52816123938289612289565b604051915061241082611ae0565b600082526040519161242183611ae0565b600083526000368137919056fea2646970667358221220fac53a1370caf574ede8ecd00820ccca998e6c97b36ea56d6ec4d70198c2f10764736f6c63430008130033",
  "linkReferences": {},
  "deployedLinkReferences": {}
}